{
  "_format": "hh-sol-artifact-1",
  "contractName": "GovChain",
  "sourceName": "contracts/GovChain.sol",
  "abi": [
    {
      "anonymous": false,
      "inputs": [
        {
          "indexed": false,
          "internalType": "string",
          "name": "hash",
          "type": "string"
        },
        {
          "indexed": false,
          "internalType": "address",
          "name": "addedBy",
          "type": "address"
        }
      ],
      "name": "DocumentAdded",
      "type": "event"
    },
    {
      "anonymous": false,
      "inputs": [
        {
          "indexed": false,
          "internalType": "address",
          "name": "user",
          "type": "address"
        }
      ],
      "name": "UserRegistered",
      "type": "event"
    },
    {
      "inputs": [
        {
          "internalType": "string",
          "name": "hash",
          "type": "string"
        }
      ],
      "name": "addDocument",
      "outputs": [],
      "stateMutability": "nonpayable",
      "type": "function"
    },
    {
      "inputs": [
        {
          "internalType": "string",
          "name": "",
          "type": "string"
        }
      ],
      "name": "documents",
      "outputs": [
        {
          "internalType": "bool",
          "name": "",
          "type": "bool"
        }
      ],
      "stateMutability": "view",
      "type": "function"
    },
    {
      "inputs": [],
      "name": "registerUser",
      "outputs": [],
      "stateMutability": "nonpayable",
      "type": "function"
    },
    {
      "inputs": [
        {
          "internalType": "address",
          "name": "",
          "type": "address"
        }
      ],
      "name": "users",
      "outputs": [
        {
          "internalType": "bool",
          "name": "",
          "type": "bool"
        }
      ],
      "stateMutability": "view",
      "type": "function"
    },
    {
      "inputs": [
        {
          "internalType": "string",
          "name": "hash",
          "type": "string"
        }
      ],
      "name": "verifyDocument",
      "outputs": [
        {
          "internalType": "bool",
          "name": "",
          "type": "bool"
        }
      ],
      "stateMutability": "view",
      "type": "function"
    }
  ],
  "bytecode": "0x608060405234801561001057600080fd5b5061092c806100206000396000f3fe608060405234801561001057600080fd5b50600436106100575760003560e01c80634d3820eb1461005c578063a87430ba14610066578063b3dd697b14610096578063beee5eb7146100c6578063f740e045146100f6575b600080fd5b610064610112565b005b610080600480360381019061007b9190610494565b61022e565b60405161008d91906104dc565b60405180910390f35b6100b060048036038101906100ab919061063d565b61024e565b6040516100bd91906104dc565b60405180910390f35b6100e060048036038101906100db919061063d565b610284565b6040516100ed91906104dc565b60405180910390f35b610110600480360381019061010b919061063d565b6102b9565b005b6000803373ffffffffffffffffffffffffffffffffffffffff1673ffffffffffffffffffffffffffffffffffffffff16815260200190815260200160002060009054906101000a900460ff161561019e576040517f08c379a0000000000000000000000000000000000000000000000000000000008152600401610195906106e3565b60405180910390fd5b60016000803373ffffffffffffffffffffffffffffffffffffffff1673ffffffffffffffffffffffffffffffffffffffff16815260200190815260200160002060006101000a81548160ff0219169083151502179055507f54db7a5cb4735e1aac1f53db512d3390390bb6637bd30ad4bf9fc98667d9b9b9336040516102249190610712565b60405180910390a1565b60006020528060005260406000206000915054906101000a900460ff1681565b6001818051602081018201805184825260208301602085012081835280955050505050506000915054906101000a900460ff1681565b6000600182604051610296919061079e565b908152602001604051809103902060009054906101000a900460ff169050919050565b6000803373ffffffffffffffffffffffffffffffffffffffff1673ffffffffffffffffffffffffffffffffffffffff16815260200190815260200160002060009054906101000a900460ff16610344576040517f08c379a000000000000000000000000000000000000000000000000000000000815260040161033b90610801565b60405180910390fd5b600181604051610354919061079e565b908152602001604051809103902060009054906101000a900460ff16156103b0576040517f08c379a00000000000000000000000000000000000000000000000000000000081526004016103a79061086d565b60405180910390fd5b600180826040516103c1919061079e565b908152602001604051809103902060006101000a81548160ff0219169083151502179055507f1f20cfdb3ef04f04d1b62bf65fa31948437bde1bd7d3cc9e674c64d57e0082a181336040516104179291906108c6565b60405180910390a150565b6000604051905090565b600080fd5b600080fd5b600073ffffffffffffffffffffffffffffffffffffffff82169050919050565b600061046182610436565b9050919050565b61047181610456565b811461047c57600080fd5b50565b60008135905061048e81610468565b92915050565b6000602082840312156104aa576104a961042c565b5b60006104b88482850161047f565b91505092915050565b60008115159050919050565b6104d6816104c1565b82525050565b60006020820190506104f160008301846104cd565b92915050565b600080fd5b600080fd5b6000601f19601f8301169050919050565b7f4e487b7100000000000000000000000000000000000000000000000000000000600052604160045260246000fd5b61054a82610501565b810181811067ffffffffffffffff8211171561056957610568610512565b5b80604052505050565b600061057c610422565b90506105888282610541565b919050565b600067ffffffffffffffff8211156105a8576105a7610512565b5b6105b182610501565b9050602081019050919050565b82818337600083830152505050565b60006105e06105db8461058d565b610572565b9050828152602081018484840111156105fc576105fb6104fc565b5b6106078482856105be565b509392505050565b600082601f830112610624576106236104f7565b5b81356106348482602086016105cd565b91505092915050565b6000602082840312156106535761065261042c565b5b600082013567ffffffffffffffff81111561067157610670610431565b5b61067d8482850161060f565b91505092915050565b600082825260208201905092915050565b7f5573657220616c72656164792072656769737465726564000000000000000000600082015250565b60006106cd601783610686565b91506106d882610697565b602082019050919050565b600060208201905081810360008301526106fc816106c0565b9050919050565b61070c81610456565b82525050565b60006020820190506107276000830184610703565b92915050565b600081519050919050565b600081905092915050565b60005b83811015610761578082015181840152602081019050610746565b60008484015250505050565b60006107788261072d565b6107828185610738565b9350610792818560208601610743565b80840191505092915050565b60006107aa828461076d565b915081905092915050565b7f55736572206e6f74207265676973746572656400000000000000000000000000600082015250565b60006107eb601383610686565b91506107f6826107b5565b602082019050919050565b6000602082019050818103600083015261081a816107de565b9050919050565b7f446f63756d656e7420616c726561647920657869737473000000000000000000600082015250565b6000610857601783610686565b915061086282610821565b602082019050919050565b600060208201905081810360008301526108868161084a565b9050919050565b60006108988261072d565b6108a28185610686565b93506108b2818560208601610743565b6108bb81610501565b840191505092915050565b600060408201905081810360008301526108e0818561088d565b90506108ef6020830184610703565b939250505056fea2646970667358221220492b8746dcca1c0d6420b2a756084d8b9e95c3cb2b728b113e96337d4ab8c6da64736f6c63430008140033",
  "linkReferences": {},
  "deployedLinkReferences": {}
}