{
  "_format": "hh-sol-artifact-1",
  "contractName": "GovChain",
  "sourceName": "contracts/GovChain.sol",
  "abi": [
    {
      "inputs": [
        {
          "internalType": "address",
          "name": "initialOwner",
          "type": "address"
        }
      ],
      "stateMutability": "nonpayable",
      "type": "constructor"
    },
    {
      "inputs": [],
      "name": "ContractPaused",
      "type": "error"
    },
    {
      "inputs": [],
      "name": "DocumentAlreadyExists",
      "type": "error"
    },
    {
      "inputs": [],
      "name": "DocumentNotFound",
      "type": "error"
    },
    {
      "inputs": [],
      "name": "EmptyMetadataURI",
      "type": "error"
    },
    {
      "inputs": [],
      "name": "EmptyRecordData",
      "type": "error"
    },
    {
      "inputs": [],
      "name": "InvalidAddress",
      "type": "error"
    },
    {
      "inputs": [],
      "name": "InvalidDocumentHash",
      "type": "error"
    },
    {
      "inputs": [],
      "name": "RecordDataTooLarge",
      "type": "error"
    },
    {
      "inputs": [],
      "name": "RecordNotFound",
      "type": "error"
    },
    {
      "inputs": [],
      "name": "RiskScoreOutOfRange",
      "type": "error"
    },
    {
      "inputs": [],
      "name": "Unauthorized",
      "type": "error"
    },
    {
      "inputs": [],
      "name": "UserAlreadyRegistered",
      "type": "error"
    },
    {
      "inputs": [],
      "name": "UserNotRegistered",
      "type": "error"
    },
    {
      "anonymous": false,
      "inputs": [
        {
          "indexed": true,
          "internalType": "bytes32",
          "name": "documentHash",
          "type": "bytes32"
        },
        {
          "indexed": false,
          "internalType": "enum GovChain.ReviewStatus",
          "name": "status",
          "type": "uint8"
        },
        {
          "indexed": true,
          "internalType": "address",
          "name": "reviewer",
          "type": "address"
        }
      ],
      "name": "DocumentStatusUpdated",
      "type": "event"
    },
    {
      "anonymous": false,
      "inputs": [
        {
          "indexed": true,
          "internalType": "bytes32",
          "name": "documentHash",
          "type": "bytes32"
        },
        {
          "indexed": true,
          "internalType": "address",
          "name": "submitter",
          "type": "address"
        },
        {
          "indexed": false,
          "internalType": "uint16",
          "name": "riskScoreBps",
          "type": "uint16"
        },
        {
          "indexed": false,
          "internalType": "string",
          "name": "metadataURI",
          "type": "string"
        },
        {
          "indexed": false,
          "internalType": "bytes32",
          "name": "aiReportHash",
          "type": "bytes32"
        }
      ],
      "name": "DocumentSubmitted",
      "type": "event"
    },
    {
      "anonymous": false,
      "inputs": [
        {
          "indexed": true,
          "internalType": "address",
          "name": "previousOwner",
          "type": "address"
        },
        {
          "indexed": true,
          "internalType": "address",
          "name": "newOwner",
          "type": "address"
        }
      ],
      "name": "OwnershipTransferred",
      "type": "event"
    },
    {
      "anonymous": false,
      "inputs": [
        {
          "indexed": false,
          "internalType": "bool",
          "name": "paused",
          "type": "bool"
        }
      ],
      "name": "PauseStateUpdated",
      "type": "event"
    },
    {
      "anonymous": false,
      "inputs": [
        {
          "indexed": true,
          "internalType": "uint256",
          "name": "recordId",
          "type": "uint256"
        },
        {
          "indexed": true,
          "internalType": "address",
          "name": "submitter",
          "type": "address"
        },
        {
          "indexed": true,
          "internalType": "bytes32",
          "name": "dataHash",
          "type": "bytes32"
        },
        {
          "indexed": false,
          "internalType": "string",
          "name": "data",
          "type": "string"
        }
      ],
      "name": "RecordStored",
      "type": "event"
    },
    {
      "anonymous": false,
      "inputs": [
        {
          "indexed": true,
          "internalType": "address",
          "name": "reviewer",
          "type": "address"
        },
        {
          "indexed": false,
          "internalType": "bool",
          "name": "enabled",
          "type": "bool"
        }
      ],
      "name": "ReviewerUpdated",
      "type": "event"
    },
    {
      "anonymous": false,
      "inputs": [
        {
          "indexed": true,
          "internalType": "address",
          "name": "user",
          "type": "address"
        },
        {
          "indexed": false,
          "internalType": "bool",
          "name": "registered",
          "type": "bool"
        },
        {
          "indexed": true,
          "internalType": "address",
          "name": "updatedBy",
          "type": "address"
        }
      ],
      "name": "UserRegistrationUpdated",
      "type": "event"
    },
    {
      "inputs": [
        {
          "internalType": "bytes32",
          "name": "documentHash",
          "type": "bytes32"
        }
      ],
      "name": "documentExists",
      "outputs": [
        {
          "internalType": "bool",
          "name": "",
          "type": "bool"
        }
      ],
      "stateMutability": "view",
      "type": "function"
    },
    {
      "inputs": [
        {
          "internalType": "bytes32",
          "name": "documentHash",
          "type": "bytes32"
        }
      ],
      "name": "getDocument",
      "outputs": [
        {
          "components": [
            {
              "internalType": "address",
              "name": "submitter",
              "type": "address"
            },
            {
              "internalType": "uint40",
              "name": "createdAt",
              "type": "uint40"
            },
            {
              "internalType": "uint16",
              "name": "riskScoreBps",
              "type": "uint16"
            },
            {
              "internalType": "enum GovChain.ReviewStatus",
              "name": "status",
              "type": "uint8"
            },
            {
              "internalType": "string",
              "name": "metadataURI",
              "type": "string"
            },
            {
              "internalType": "bytes32",
              "name": "aiReportHash",
              "type": "bytes32"
            }
          ],
          "internalType": "struct GovChain.DocumentRecord",
          "name": "",
          "type": "tuple"
        }
      ],
      "stateMutability": "view",
      "type": "function"
    },
    {
      "inputs": [
        {
          "internalType": "uint256",
          "name": "recordId",
          "type": "uint256"
        }
      ],
      "name": "getRecord",
      "outputs": [
        {
          "components": [
            {
              "internalType": "uint40",
              "name": "createdAt",
              "type": "uint40"
            },
            {
              "internalType": "address",
              "name": "submitter",
              "type": "address"
            },
            {
              "internalType": "string",
              "name": "data",
              "type": "string"
            }
          ],
          "internalType": "struct GovChain.ChainRecord",
          "name": "",
          "type": "tuple"
        }
      ],
      "stateMutability": "view",
      "type": "function"
    },
    {
      "inputs": [],
      "name": "getRecordCount",
      "outputs": [
        {
          "internalType": "uint256",
          "name": "",
          "type": "uint256"
        }
      ],
      "stateMutability": "view",
      "type": "function"
    },
    {
      "inputs": [],
      "name": "getRecords",
      "outputs": [
        {
          "components": [
            {
              "internalType": "uint40",
              "name": "createdAt",
              "type": "uint40"
            },
            {
              "internalType": "address",
              "name": "submitter",
              "type": "address"
            },
            {
              "internalType": "string",
              "name": "data",
              "type": "string"
            }
          ],
          "internalType": "struct GovChain.ChainRecord[]",
          "name": "",
          "type": "tuple[]"
        }
      ],
      "stateMutability": "view",
      "type": "function"
    },
    {
      "inputs": [
        {
          "internalType": "address",
          "name": "user",
          "type": "address"
        }
      ],
      "name": "isUserRegistered",
      "outputs": [
        {
          "internalType": "bool",
          "name": "",
          "type": "bool"
        }
      ],
      "stateMutability": "view",
      "type": "function"
    },
    {
      "inputs": [],
      "name": "owner",
      "outputs": [
        {
          "internalType": "address",
          "name": "",
          "type": "address"
        }
      ],
      "stateMutability": "view",
      "type": "function"
    },
    {
      "inputs": [],
      "name": "paused",
      "outputs": [
        {
          "internalType": "bool",
          "name": "",
          "type": "bool"
        }
      ],
      "stateMutability": "view",
      "type": "function"
    },
    {
      "inputs": [],
      "name": "registerSelf",
      "outputs": [],
      "stateMutability": "nonpayable",
      "type": "function"
    },
    {
      "inputs": [
        {
          "internalType": "address",
          "name": "",
          "type": "address"
        }
      ],
      "name": "reviewers",
      "outputs": [
        {
          "internalType": "bool",
          "name": "",
          "type": "bool"
        }
      ],
      "stateMutability": "view",
      "type": "function"
    },
    {
      "inputs": [
        {
          "internalType": "bool",
          "name": "isPaused",
          "type": "bool"
        }
      ],
      "name": "setPaused",
      "outputs": [],
      "stateMutability": "nonpayable",
      "type": "function"
    },
    {
      "inputs": [
        {
          "internalType": "address",
          "name": "reviewer",
          "type": "address"
        },
        {
          "internalType": "bool",
          "name": "enabled",
          "type": "bool"
        }
      ],
      "name": "setReviewer",
      "outputs": [],
      "stateMutability": "nonpayable",
      "type": "function"
    },
    {
      "inputs": [
        {
          "internalType": "address",
          "name": "user",
          "type": "address"
        },
        {
          "internalType": "bool",
          "name": "registered",
          "type": "bool"
        }
      ],
      "name": "setUserRegistration",
      "outputs": [],
      "stateMutability": "nonpayable",
      "type": "function"
    },
    {
      "inputs": [
        {
          "internalType": "string",
          "name": "data",
          "type": "string"
        }
      ],
      "name": "storeRecord",
      "outputs": [
        {
          "internalType": "uint256",
          "name": "recordId",
          "type": "uint256"
        }
      ],
      "stateMutability": "nonpayable",
      "type": "function"
    },
    {
      "inputs": [
        {
          "internalType": "bytes32",
          "name": "documentHash",
          "type": "bytes32"
        },
        {
          "internalType": "string",
          "name": "metadataURI",
          "type": "string"
        },
        {
          "internalType": "bytes32",
          "name": "aiReportHash",
          "type": "bytes32"
        },
        {
          "internalType": "uint16",
          "name": "riskScoreBps",
          "type": "uint16"
        }
      ],
      "name": "submitDocument",
      "outputs": [],
      "stateMutability": "nonpayable",
      "type": "function"
    },
    {
      "inputs": [
        {
          "internalType": "address",
          "name": "newOwner",
          "type": "address"
        }
      ],
      "name": "transferOwnership",
      "outputs": [],
      "stateMutability": "nonpayable",
      "type": "function"
    },
    {
      "inputs": [
        {
          "internalType": "bytes32",
          "name": "documentHash",
          "type": "bytes32"
        },
        {
          "internalType": "enum GovChain.ReviewStatus",
          "name": "status",
          "type": "uint8"
        }
      ],
      "name": "updateDocumentStatus",
      "outputs": [],
      "stateMutability": "nonpayable",
      "type": "function"
    }
  ],
  "bytecode": "0x608060405234801561001057600080fd5b5060405161162d38038061162d83398101604081905261002f916100a4565b6001600160a01b0381166100565760405163e6c4247b60e01b815260040160405180910390fd5b600080546001600160a01b0319166001600160a01b03831690811782556040519091907f8be0079c531659141344cd1fd0a4f28419497f9722a3daafe3b4186f6b6457e0908290a3506100d4565b6000602082840312156100b657600080fd5b81516001600160a01b03811681146100cd57600080fd5b9392505050565b61154a806100e36000396000f3fe608060405234801561001057600080fd5b506004361061010b5760003560e01c80638da5cb5b116100a2578063ca267f2811610071578063ca267f281461026b578063cbc0415d14610273578063cbfe6d411461027b578063f2fde38b146102a6578063f7cbb1b2146102b957600080fd5b80638da5cb5b146101f85780638eff3c2914610223578063acee712714610238578063b10d6b411461024b57600080fd5b806346d82033116100de57806346d820331461019d5780635c975abb146101b057806376d91d08146101c457806379caed13146101e557600080fd5b806303e9e60914610110578063163f75221461013957806316c38b3c146101755780632a1ef2201461018a575b600080fd5b61012361011e366004610f82565b6102dc565b6040516101309190611021565b60405180910390f35b610165610147366004611057565b6001600160a01b031660009081526001602052604090205460ff1690565b6040519015158152602001610130565b610188610183366004611082565b61040f565b005b61018861019836600461109d565b6104aa565b6101886101ab36600461111a565b6105c3565b60005461016590600160a01b900460ff1681565b6101d76101d236600461118c565b610836565b604051908152602001610130565b6101886101f33660046111ce565b610a08565b60005461020b906001600160a01b031681565b6040516001600160a01b039091168152602001610130565b61022b610ae2565b6040516101309190611201565b6101886102463660046111ce565b610bff565b61025e610259366004610f82565b610caf565b604051610130919061129d565b6004546101d7565b610188610e34565b610165610289366004610f82565b6000908152600360205260409020546001600160a01b0316151590565b6101886102b4366004611057565b610ee1565b6101656102c7366004611057565b60026020526000908152604090205460ff1681565b60408051606080820183526000808352602083015291810191909152600454821061031a57604051633e07f1a160e01b815260040160405180910390fd5b6004828154811061032d5761032d611313565b6000918252602091829020604080516060810182526002909302909101805464ffffffffff811684526001600160a01b036501000000000090910416938301939093526001830180549293929184019161038690611329565b80601f01602080910402602001604051908101604052809291908181526020018280546103b290611329565b80156103ff5780601f106103d4576101008083540402835291602001916103ff565b820191906000526020600020905b8154815290600101906020018083116103e257829003601f168201915b5050505050815250509050919050565b6000546001600160a01b03163314610439576040516282b42960e81b815260040160405180910390fd5b60005460ff600160a01b909104161515811515146104a75760008054821515600160a01b0260ff60a01b199091161790556040517fb31006682779d0ac02864bee834675baf4592a679bfe75edd5e5847b52ef6f6e9061049e90831515815260200190565b60405180910390a15b50565b6000546001600160a01b031633148015906104d557503360009081526002602052604090205460ff16155b156104f2576040516282b42960e81b815260040160405180910390fd5b600054600160a01b900460ff161561051d5760405163ab35696f60e01b815260040160405180910390fd5b600082815260036020526040902080546001600160a01b0316610553576040516328193b9d60e21b815260040160405180910390fd5b80548290829060ff60d81b1916600160d81b83600281111561057757610577611265565b0217905550336001600160a01b0316837fe123fcf79299e6be2edd0725a15413bfca4dd8b83c54b7c0cce6e69e83b75d3f846040516105b69190611363565b60405180910390a3505050565b600054600160a01b900460ff16156105ee5760405163ab35696f60e01b815260040160405180910390fd5b3360009081526001602052604090205460ff1661061e57604051632163950f60e01b815260040160405180910390fd5b8461063c57604051630c96ccbb60e11b815260040160405180910390fd5b600083900361065e5760405163128e0ec160e11b815260040160405180910390fd5b6127108161ffff16111561068557604051632c22346760e21b815260040160405180910390fd5b6000858152600360205260409020546001600160a01b0316156106bb5760405163019b268b60e71b815260040160405180910390fd5b6040805160c08101825233815264ffffffffff4216602082015261ffff831691810191909152606081016000815260200185858080601f016020809104026020016040519081016040528093929190818152602001838380828437600092018290525093855250505060209182018590528781526003825260409081902083518154938501519285015161ffff16600160c81b0261ffff60c81b1964ffffffffff909416600160a01b026001600160c81b03199095166001600160a01b03909216919091179390931791821683178155606084015190929091839160ff60d81b191662ffffff60c81b1990911617600160d81b8360028111156107c0576107c0611265565b0217905550608082015160018201906107d990826113d8565b5060a08201518160020155905050336001600160a01b0316857f3f3f7b29610c74540edb26f493ece61cbda523a3dcc4287d792d751fb1b498298387878760405161082794939291906114c1565b60405180910390a35050505050565b600080546001600160a01b03163314610861576040516282b42960e81b815260040160405180910390fd5b600054600160a01b900460ff161561088c5760405163ab35696f60e01b815260040160405180910390fd5b8160008190036108ae576040516208ca0960e81b815260040160405180910390fd5b6108008111156108d15760405163e1ac5abb60e01b815260040160405180910390fd5b6004805490509150600460405180606001604052804264ffffffffff168152602001336001600160a01b0316815260200186868080601f016020809104026020016040519081016040528093929190818152602001838380828437600092018290525093909452505083546001818101865594825260209182902084516002909202018054928501516001600160a01b031665010000000000026001600160c81b031990931664ffffffffff9092169190911791909117815560408301519293909290830191506109a290826113d8565b50505083836040516109b59291906114f0565b6040518091039020336001600160a01b0316837f89bcd457a7d5fb60d8eb4cbd3a80909d5d28e05d5198b670815e4ecb21755be687876040516109f9929190611500565b60405180910390a45092915050565b6000546001600160a01b03163314610a32576040516282b42960e81b815260040160405180910390fd5b6001600160a01b038216610a595760405163e6c4247b60e01b815260040160405180910390fd5b6001600160a01b03821660009081526001602052604090205460ff16151581151514610ade576001600160a01b038216600081815260016020908152604091829020805460ff191685151590811790915591519182523392917f5f51d493bad816ecaf342fb1ecdc6d473c60abbd1517776c978b39cb52db807d910160405180910390a35b5050565b60606004805480602002602001604051908101604052809291908181526020016000905b82821015610bf65760008481526020908190206040805160608101825260028602909201805464ffffffffff811684526501000000000090046001600160a01b03169383019390935260018301805492939291840191610b6590611329565b80601f0160208091040260200160405190810160405280929190818152602001828054610b9190611329565b8015610bde5780601f10610bb357610100808354040283529160200191610bde565b820191906000526020600020905b815481529060010190602001808311610bc157829003601f168201915b50505050508152505081526020019060010190610b06565b50505050905090565b6000546001600160a01b03163314610c29576040516282b42960e81b815260040160405180910390fd5b6001600160a01b038216610c505760405163e6c4247b60e01b815260040160405180910390fd5b6001600160a01b038216600081815260026020908152604091829020805460ff191685151590811790915591519182527faa95c4d249b73965830805cc3cfad4a44fdc76f7677c815fa9fe202e4634d642910160405180910390a25050565b6040805160c0810182526000808252602082018190529181018290526060808201839052608082015260a08101919091526000828152600360209081526040808320815160c08101835281546001600160a01b0381168252600160a01b810464ffffffffff1694820194909452600160c81b840461ffff169281019290925290916060830190600160d81b900460ff166002811115610d5057610d50611265565b6002811115610d6157610d61611265565b8152602001600182018054610d7590611329565b80601f0160208091040260200160405190810160405280929190818152602001828054610da190611329565b8015610dee5780601f10610dc357610100808354040283529160200191610dee565b820191906000526020600020905b815481529060010190602001808311610dd157829003601f168201915b50505091835250506002919091015460209091015280519091506001600160a01b0316610e2e576040516328193b9d60e21b815260040160405180910390fd5b92915050565b600054600160a01b900460ff1615610e5f5760405163ab35696f60e01b815260040160405180910390fd5b3360009081526001602052604090205460ff1615610e9057604051634f2532fb60e11b815260040160405180910390fd5b33600081815260016020818152604092839020805460ff191683179055915190815282917f5f51d493bad816ecaf342fb1ecdc6d473c60abbd1517776c978b39cb52db807d910160405180910390a3565b6000546001600160a01b03163314610f0b576040516282b42960e81b815260040160405180910390fd5b6001600160a01b038116610f325760405163e6c4247b60e01b815260040160405180910390fd5b600080546001600160a01b038381166001600160a01b0319831681178455604051919092169283917f8be0079c531659141344cd1fd0a4f28419497f9722a3daafe3b4186f6b6457e09190a35050565b600060208284031215610f9457600080fd5b5035919050565b6000815180845260005b81811015610fc157602081850181015186830182015201610fa5565b506000602082860101526020601f19601f83011685010191505092915050565b64ffffffffff815116825260018060a01b03602082015116602083015260006040820151606060408501526110196060850182610f9b565b949350505050565b6020815260006110346020830184610fe1565b9392505050565b80356001600160a01b038116811461105257600080fd5b919050565b60006020828403121561106957600080fd5b6110348261103b565b8035801515811461105257600080fd5b60006020828403121561109457600080fd5b61103482611072565b600080604083850312156110b057600080fd5b823591506020830135600381106110c657600080fd5b809150509250929050565b60008083601f8401126110e357600080fd5b50813567ffffffffffffffff8111156110fb57600080fd5b60208301915083602082850101111561111357600080fd5b9250929050565b60008060008060006080868803121561113257600080fd5b85359450602086013567ffffffffffffffff81111561115057600080fd5b61115c888289016110d1565b90955093505060408601359150606086013561ffff8116811461117e57600080fd5b809150509295509295909350565b6000806020838503121561119f57600080fd5b823567ffffffffffffffff8111156111b657600080fd5b6111c2858286016110d1565b90969095509350505050565b600080604083850312156111e157600080fd5b6111ea8361103b565b91506111f860208401611072565b90509250929050565b600060208083016020845280855180835260408601915060408160051b87010192506020870160005b8281101561125857603f19888603018452611246858351610fe1565b9450928501929085019060010161122a565b5092979650505050505050565b634e487b7160e01b600052602160045260246000fd5b6003811061129957634e487b7160e01b600052602160045260246000fd5b9052565b6020815260018060a01b03825116602082015264ffffffffff602083015116604082015261ffff6040830151166060820152600060608301516112e3608084018261127b565b50608083015160c060a08401526112fd60e0840182610f9b565b905060a084015160c08401528091505092915050565b634e487b7160e01b600052603260045260246000fd5b600181811c9082168061133d57607f821691505b60208210810361135d57634e487b7160e01b600052602260045260246000fd5b50919050565b60208101610e2e828461127b565b634e487b7160e01b600052604160045260246000fd5b601f8211156113d3576000816000526020600020601f850160051c810160208610156113b05750805b601f850160051c820191505b818110156113cf578281556001016113bc565b5050505b505050565b815167ffffffffffffffff8111156113f2576113f2611371565b611406816114008454611329565b84611387565b602080601f83116001811461143b57600084156114235750858301515b600019600386901b1c1916600185901b1785556113cf565b600085815260208120601f198616915b8281101561146a5788860151825594840194600190910190840161144b565b50858210156114885787850151600019600388901b60f8161c191681555b5050505050600190811b01905550565b81835281816020850137506000828201602090810191909152601f909101601f19169091010190565b61ffff851681526060602082015260006114df606083018587611498565b905082604083015295945050505050565b8183823760009101908152919050565b60208152600061101960208301848661149856fea26469706673582212209cbfbc61187bfbab09352dc7c17e5d546a590f2c37059329f9e176d31d74cb2964736f6c63430008180033",
  "linkReferences": {},
  "deployedLinkReferences": {}
}